{
  "contractName": "VestingWallet",
  "abi": [
    {
      "inputs": [
        {
          "internalType": "address",
          "name": "beneficiary",
          "type": "address"
        },
        {
          "internalType": "uint64",
          "name": "startTimestamp",
          "type": "uint64"
        },
        {
          "internalType": "uint64",
          "name": "durationSeconds",
          "type": "uint64"
        }
      ],
      "stateMutability": "payable",
      "type": "constructor"
    },
    {
      "inputs": [
        {
          "internalType": "address",
          "name": "target",
          "type": "address"
        }
      ],
      "name": "AddressEmptyCode",
      "type": "error"
    },
    {
      "inputs": [
        {
          "internalType": "address",
          "name": "account",
          "type": "address"
        }
      ],
      "name": "AddressInsufficientBalance",
      "type": "error"
    },
    {
      "inputs": [],
      "name": "FailedInnerCall",
      "type": "error"
    },
    {
      "inputs": [
        {
          "internalType": "address",
          "name": "owner",
          "type": "address"
        }
      ],
      "name": "OwnableInvalidOwner",
      "type": "error"
    },
    {
      "inputs": [
        {
          "internalType": "address",
          "name": "account",
          "type": "address"
        }
      ],
      "name": "OwnableUnauthorizedAccount",
      "type": "error"
    },
    {
      "inputs": [
        {
          "internalType": "address",
          "name": "token",
          "type": "address"
        }
      ],
      "name": "SafeERC20FailedOperation",
      "type": "error"
    },
    {
      "anonymous": false,
      "inputs": [
        {
          "indexed": true,
          "internalType": "address",
          "name": "token",
          "type": "address"
        },
        {
          "indexed": false,
          "internalType": "uint256",
          "name": "amount",
          "type": "uint256"
        }
      ],
      "name": "ERC20Released",
      "type": "event"
    },
    {
      "anonymous": false,
      "inputs": [
        {
          "indexed": false,
          "internalType": "uint256",
          "name": "amount",
          "type": "uint256"
        }
      ],
      "name": "EtherReleased",
      "type": "event"
    },
    {
      "anonymous": false,
      "inputs": [
        {
          "indexed": true,
          "internalType": "address",
          "name": "previousOwner",
          "type": "address"
        },
        {
          "indexed": true,
          "internalType": "address",
          "name": "newOwner",
          "type": "address"
        }
      ],
      "name": "OwnershipTransferred",
      "type": "event"
    },
    {
      "inputs": [],
      "name": "owner",
      "outputs": [
        {
          "internalType": "address",
          "name": "",
          "type": "address"
        }
      ],
      "stateMutability": "view",
      "type": "function"
    },
    {
      "inputs": [],
      "name": "renounceOwnership",
      "outputs": [],
      "stateMutability": "nonpayable",
      "type": "function"
    },
    {
      "inputs": [
        {
          "internalType": "address",
          "name": "newOwner",
          "type": "address"
        }
      ],
      "name": "transferOwnership",
      "outputs": [],
      "stateMutability": "nonpayable",
      "type": "function"
    },
    {
      "stateMutability": "payable",
      "type": "receive"
    },
    {
      "inputs": [],
      "name": "start",
      "outputs": [
        {
          "internalType": "uint256",
          "name": "",
          "type": "uint256"
        }
      ],
      "stateMutability": "view",
      "type": "function"
    },
    {
      "inputs": [],
      "name": "duration",
      "outputs": [
        {
          "internalType": "uint256",
          "name": "",
          "type": "uint256"
        }
      ],
      "stateMutability": "view",
      "type": "function"
    },
    {
      "inputs": [],
      "name": "end",
      "outputs": [
        {
          "internalType": "uint256",
          "name": "",
          "type": "uint256"
        }
      ],
      "stateMutability": "view",
      "type": "function"
    },
    {
      "inputs": [],
      "name": "released",
      "outputs": [
        {
          "internalType": "uint256",
          "name": "",
          "type": "uint256"
        }
      ],
      "stateMutability": "view",
      "type": "function"
    },
    {
      "inputs": [
        {
          "internalType": "address",
          "name": "token",
          "type": "address"
        }
      ],
      "name": "released",
      "outputs": [
        {
          "internalType": "uint256",
          "name": "",
          "type": "uint256"
        }
      ],
      "stateMutability": "view",
      "type": "function"
    },
    {
      "inputs": [
        {
          "internalType": "address",
          "name": "token",
          "type": "address"
        }
      ],
      "name": "releasable",
      "outputs": [
        {
          "internalType": "uint256",
          "name": "",
          "type": "uint256"
        }
      ],
      "stateMutability": "view",
      "type": "function"
    },
    {
      "inputs": [],
      "name": "releasable",
      "outputs": [
        {
          "internalType": "uint256",
          "name": "",
          "type": "uint256"
        }
      ],
      "stateMutability": "view",
      "type": "function"
    },
    {
      "inputs": [
        {
          "internalType": "address",
          "name": "token",
          "type": "address"
        }
      ],
      "name": "release",
      "outputs": [],
      "stateMutability": "nonpayable",
      "type": "function"
    },
    {
      "inputs": [],
      "name": "release",
      "outputs": [],
      "stateMutability": "nonpayable",
      "type": "function"
    },
    {
      "inputs": [
        {
          "internalType": "uint64",
          "name": "timestamp",
          "type": "uint64"
        }
      ],
      "name": "vestedAmount",
      "outputs": [
        {
          "internalType": "uint256",
          "name": "",
          "type": "uint256"
        }
      ],
      "stateMutability": "view",
      "type": "function"
    },
    {
      "inputs": [
        {
          "internalType": "address",
          "name": "token",
          "type": "address"
        },
        {
          "internalType": "uint64",
          "name": "timestamp",
          "type": "uint64"
        }
      ],
      "name": "vestedAmount",
      "outputs": [
        {
          "internalType": "uint256",
          "name": "",
          "type": "uint256"
        }
      ],
      "stateMutability": "view",
      "type": "function"
    }
  ],
  "bytecode": "0x60c06040526040516200141d3803806200141d833981810160405281019062000029919062000258565b825f73ffffffffffffffffffffffffffffffffffffffff168173ffffffffffffffffffffffffffffffffffffffff16036200009d575f6040517f1e4fbdf7000000000000000000000000000000000000000000000000000000008152600401620000949190620002c2565b60405180910390fd5b620000ae81620000f060201b60201c565b508167ffffffffffffffff1660808167ffffffffffffffff16815250508067ffffffffffffffff1660a08167ffffffffffffffff1681525050505050620002dd565b5f805f9054906101000a900473ffffffffffffffffffffffffffffffffffffffff169050815f806101000a81548173ffffffffffffffffffffffffffffffffffffffff021916908373ffffffffffffffffffffffffffffffffffffffff1602179055508173ffffffffffffffffffffffffffffffffffffffff168173ffffffffffffffffffffffffffffffffffffffff167f8be0079c531659141344cd1fd0a4f28419497f9722a3daafe3b4186f6b6457e060405160405180910390a35050565b5f80fd5b5f73ffffffffffffffffffffffffffffffffffffffff82169050919050565b5f620001e082620001b5565b9050919050565b620001f281620001d4565b8114620001fd575f80fd5b50565b5f815190506200021081620001e7565b92915050565b5f67ffffffffffffffff82169050919050565b620002348162000216565b81146200023f575f80fd5b50565b5f81519050620002528162000229565b92915050565b5f805f60608486031215620002725762000271620001b1565b5b5f620002818682870162000200565b9350506020620002948682870162000242565b9250506040620002a78682870162000242565b9150509250925092565b620002bc81620001d4565b82525050565b5f602082019050620002d75f830184620002b1565b92915050565b60805160a05161111e620002ff5f395f61037a01525f610627015261111e5ff3fe6080604052600436106100e0575f3560e01c8063961325211161007e578063be9a655511610058578063be9a6555146102ad578063efbe1c1c146102d7578063f2fde38b14610301578063fbccedae14610329576100e7565b8063961325211461020b5780639852595c14610235578063a3f8eace14610271576100e7565b8063715018a6116100ba578063715018a614610179578063810ec23b1461018f57806386d1a69f146101cb5780638da5cb5b146101e1576100e7565b80630a17b06b146100eb5780630fb5a6b4146101275780631916558714610151576100e7565b366100e757005b5f80fd5b3480156100f6575f80fd5b50610111600480360381019061010c9190610cdb565b610353565b60405161011e9190610d1e565b60405180910390f35b348015610132575f80fd5b5061013b610377565b6040516101489190610d1e565b60405180910390f35b34801561015c575f80fd5b5061017760048036038101906101729190610d91565b6103a8565b005b348015610184575f80fd5b5061018d61046b565b005b34801561019a575f80fd5b506101b560048036038101906101b09190610dbc565b61047e565b6040516101c29190610d1e565b60405180910390f35b3480156101d6575f80fd5b506101df61051b565b005b3480156101ec575f80fd5b506101f5610589565b6040516102029190610e09565b60405180910390f35b348015610216575f80fd5b5061021f6105b0565b60405161022c9190610d1e565b60405180910390f35b348015610240575f80fd5b5061025b60048036038101906102569190610d91565b6105b9565b6040516102689190610d1e565b60405180910390f35b34801561027c575f80fd5b5061029760048036038101906102929190610d91565b6105ff565b6040516102a49190610d1e565b60405180910390f35b3480156102b8575f80fd5b506102c1610624565b6040516102ce9190610d1e565b60405180910390f35b3480156102e2575f80fd5b506102eb610655565b6040516102f89190610d1e565b60405180910390f35b34801561030c575f80fd5b5061032760048036038101906103229190610d91565b610675565b005b348015610334575f80fd5b5061033d6106f9565b60405161034a9190610d1e565b60405180910390f35b5f61037061035f6105b0565b4761036a9190610e4f565b8361071a565b9050919050565b5f7f000000000000000000000000000000000000000000000000000000000000000067ffffffffffffffff16905090565b5f6103b2826105ff565b90508060025f8473ffffffffffffffffffffffffffffffffffffffff1673ffffffffffffffffffffffffffffffffffffffff1681526020019081526020015f205f8282546104009190610e4f565b925050819055508173ffffffffffffffffffffffffffffffffffffffff167fc0e523490dd523c33b1878c9eb14ff46991e3f5b2cd33710918618f2a39cba1b8260405161044d9190610d1e565b60405180910390a261046782610461610589565b8361079f565b5050565b61047361081e565b61047c5f6108a5565b565b5f61051361048b846105b9565b8473ffffffffffffffffffffffffffffffffffffffff166370a08231306040518263ffffffff1660e01b81526004016104c49190610e09565b602060405180830381865afa1580156104df573d5f803e3d5ffd5b505050506040513d601f19601f820116820180604052508101906105039190610eac565b61050d9190610e4f565b8361071a565b905092915050565b5f6105246106f9565b90508060015f8282546105379190610e4f565b925050819055507fda9d4e5f101b8b9b1c5b76d0c5a9f7923571acfc02376aa076b75a8c080c956b8160405161056d9190610d1e565b60405180910390a1610586610580610589565b82610966565b50565b5f805f9054906101000a900473ffffffffffffffffffffffffffffffffffffffff16905090565b5f600154905090565b5f60025f8373ffffffffffffffffffffffffffffffffffffffff1673ffffffffffffffffffffffffffffffffffffffff1681526020019081526020015f20549050919050565b5f610609826105b9565b610613834261047e565b61061d9190610ed7565b9050919050565b5f7f000000000000000000000000000000000000000000000000000000000000000067ffffffffffffffff16905090565b5f61065e610377565b610666610624565b6106709190610e4f565b905090565b61067d61081e565b5f73ffffffffffffffffffffffffffffffffffffffff168173ffffffffffffffffffffffffffffffffffffffff16036106ed575f6040517f1e4fbdf70000000000000000000000000000000000000000000000000000000081526004016106e49190610e09565b60405180910390fd5b6106f6816108a5565b50565b5f6107026105b0565b61070b42610353565b6107159190610ed7565b905090565b5f610723610624565b8267ffffffffffffffff16101561073c575f9050610799565b610744610655565b8267ffffffffffffffff161061075c57829050610799565b610764610377565b61076c610624565b8367ffffffffffffffff166107819190610ed7565b8461078c9190610f0a565b6107969190610f78565b90505b92915050565b610819838473ffffffffffffffffffffffffffffffffffffffff1663a9059cbb85856040516024016107d2929190610fa8565b604051602081830303815290604052915060e01b6020820180517bffffffffffffffffffffffffffffffffffffffffffffffffffffffff8381831617835250505050610a4f565b505050565b610826610ae4565b73ffffffffffffffffffffffffffffffffffffffff16610844610589565b73ffffffffffffffffffffffffffffffffffffffff16146108a357610867610ae4565b6040517f118cdaa700000000000000000000000000000000000000000000000000000000815260040161089a9190610e09565b60405180910390fd5b565b5f805f9054906101000a900473ffffffffffffffffffffffffffffffffffffffff169050815f806101000a81548173ffffffffffffffffffffffffffffffffffffffff021916908373ffffffffffffffffffffffffffffffffffffffff1602179055508173ffffffffffffffffffffffffffffffffffffffff168173ffffffffffffffffffffffffffffffffffffffff167f8be0079c531659141344cd1fd0a4f28419497f9722a3daafe3b4186f6b6457e060405160405180910390a35050565b804710156109ab57306040517fcd7860590000000000000000000000000000000000000000000000000000000081526004016109a29190610e09565b60405180910390fd5b5f8273ffffffffffffffffffffffffffffffffffffffff16826040516109d090610ffc565b5f6040518083038185875af1925050503d805f8114610a0a576040519150601f19603f3d011682016040523d82523d5f602084013e610a0f565b606091505b5050905080610a4a576040517f1425ea4200000000000000000000000000000000000000000000000000000000815260040160405180910390fd5b505050565b5f610a79828473ffffffffffffffffffffffffffffffffffffffff16610aeb90919063ffffffff16565b90505f815114158015610a9d575080806020019051810190610a9b9190611045565b155b15610adf57826040517f5274afe7000000000000000000000000000000000000000000000000000000008152600401610ad69190610e09565b60405180910390fd5b505050565b5f33905090565b6060610af883835f610b00565b905092915050565b606081471015610b4757306040517fcd786059000000000000000000000000000000000000000000000000000000008152600401610b3e9190610e09565b60405180910390fd5b5f808573ffffffffffffffffffffffffffffffffffffffff168486604051610b6f91906110d2565b5f6040518083038185875af1925050503d805f8114610ba9576040519150601f19603f3d011682016040523d82523d5f602084013e610bae565b606091505b5091509150610bbe868383610bc9565b925050509392505050565b606082610bde57610bd982610c56565b610c4e565b5f8251148015610c0457505f8473ffffffffffffffffffffffffffffffffffffffff163b145b15610c4657836040517f9996b315000000000000000000000000000000000000000000000000000000008152600401610c3d9190610e09565b60405180910390fd5b819050610c4f565b5b9392505050565b5f81511115610c685780518082602001fd5b6040517f1425ea4200000000000000000000000000000000000000000000000000000000815260040160405180910390fd5b5f80fd5b5f67ffffffffffffffff82169050919050565b610cba81610c9e565b8114610cc4575f80fd5b50565b5f81359050610cd581610cb1565b92915050565b5f60208284031215610cf057610cef610c9a565b5b5f610cfd84828501610cc7565b91505092915050565b5f819050919050565b610d1881610d06565b82525050565b5f602082019050610d315f830184610d0f565b92915050565b5f73ffffffffffffffffffffffffffffffffffffffff82169050919050565b5f610d6082610d37565b9050919050565b610d7081610d56565b8114610d7a575f80fd5b50565b5f81359050610d8b81610d67565b92915050565b5f60208284031215610da657610da5610c9a565b5b5f610db384828501610d7d565b91505092915050565b5f8060408385031215610dd257610dd1610c9a565b5b5f610ddf85828601610d7d565b9250506020610df085828601610cc7565b9150509250929050565b610e0381610d56565b82525050565b5f602082019050610e1c5f830184610dfa565b92915050565b7f4e487b71000000000000000000000000000000000000000000000000000000005f52601160045260245ffd5b5f610e5982610d06565b9150610e6483610d06565b9250828201905080821115610e7c57610e7b610e22565b5b92915050565b610e8b81610d06565b8114610e95575f80fd5b50565b5f81519050610ea681610e82565b92915050565b5f60208284031215610ec157610ec0610c9a565b5b5f610ece84828501610e98565b91505092915050565b5f610ee182610d06565b9150610eec83610d06565b9250828203905081811115610f0457610f03610e22565b5b92915050565b5f610f1482610d06565b9150610f1f83610d06565b9250828202610f2d81610d06565b91508282048414831517610f4457610f43610e22565b5b5092915050565b7f4e487b71000000000000000000000000000000000000000000000000000000005f52601260045260245ffd5b5f610f8282610d06565b9150610f8d83610d06565b925082610f9d57610f9c610f4b565b5b828204905092915050565b5f604082019050610fbb5f830185610dfa565b610fc86020830184610d0f565b9392505050565b5f81905092915050565b50565b5f610fe75f83610fcf565b9150610ff282610fd9565b5f82019050919050565b5f61100682610fdc565b9150819050919050565b5f8115159050919050565b61102481611010565b811461102e575f80fd5b50565b5f8151905061103f8161101b565b92915050565b5f6020828403121561105a57611059610c9a565b5b5f61106784828501611031565b91505092915050565b5f81519050919050565b5f5b8381101561109757808201518184015260208101905061107c565b5f8484015250505050565b5f6110ac82611070565b6110b68185610fcf565b93506110c681856020860161107a565b80840191505092915050565b5f6110dd82846110a2565b91508190509291505056fea26469706673582212207036b4703cf01a8b5719fe31840290a16778ca3a404983d87ff4e9f4d4d4746c64736f6c63430008150033",
  "immutableReferences": {
    "8029": [
      {
        "length": 32,
        "start": 1575
      }
    ],
    "8031": [
      {
        "length": 32,
        "start": 890
      }
    ]
  },
  "source": "// SPDX-License-Identifier: MIT\n// OpenZeppelin Contracts (last updated v5.0.0) (finance/VestingWallet.sol)\npragma solidity ^0.8.20;\n\nimport {IERC20} from \"../token/ERC20/IERC20.sol\";\nimport {SafeERC20} from \"../token/ERC20/utils/SafeERC20.sol\";\nimport {Address} from \"../utils/Address.sol\";\nimport {Context} from \"../utils/Context.sol\";\nimport {Ownable} from \"../access/Ownable.sol\";\n\n/**\n * @dev A vesting wallet is an ownable contract that can receive native currency and ERC20 tokens, and release these\n * assets to the wallet owner, also referred to as \"beneficiary\", according to a vesting schedule.\n *\n * Any assets transferred to this contract will follow the vesting schedule as if they were locked from the beginning.\n * Consequently, if the vesting has already started, any amount of tokens sent to this contract will (at least partly)\n * be immediately releasable.\n *\n * By setting the duration to 0, one can configure this contract to behave like an asset timelock that hold tokens for\n * a beneficiary until a specified time.\n *\n * NOTE: Since the wallet is {Ownable}, and ownership can be transferred, it is possible to sell unvested tokens.\n * Preventing this in a smart contract is difficult, considering that: 1) a beneficiary address could be a\n * counterfactually deployed contract, 2) there is likely to be a migration path for EOAs to become contracts in the\n * near future.\n *\n * NOTE: When using this contract with any token whose balance is adjusted automatically (i.e. a rebase token), make\n * sure to account the supply/balance adjustment in the vesting schedule to ensure the vested amount is as intended.\n */\ncontract VestingWallet is Context, Ownable {\n    event EtherReleased(uint256 amount);\n    event ERC20Released(address indexed token, uint256 amount);\n\n    uint256 private _released;\n    mapping(address token => uint256) private _erc20Released;\n    uint64 private immutable _start;\n    uint64 private immutable _duration;\n\n    /**\n     * @dev Sets the sender as the initial owner, the beneficiary as the pending owner, the start timestamp and the\n     * vesting duration of the vesting wallet.\n     */\n    constructor(address beneficiary, uint64 startTimestamp, uint64 durationSeconds) payable Ownable(beneficiary) {\n        _start = startTimestamp;\n        _duration = durationSeconds;\n    }\n\n    /**\n     * @dev The contract should be able to receive Eth.\n     */\n    receive() external payable virtual {}\n\n    /**\n     * @dev Getter for the start timestamp.\n     */\n    function start() public view virtual returns (uint256) {\n        return _start;\n    }\n\n    /**\n     * @dev Getter for the vesting duration.\n     */\n    function duration() public view virtual returns (uint256) {\n        return _duration;\n    }\n\n    /**\n     * @dev Getter for the end timestamp.\n     */\n    function end() public view virtual returns (uint256) {\n        return start() + duration();\n    }\n\n    /**\n     * @dev Amount of eth already released\n     */\n    function released() public view virtual returns (uint256) {\n        return _released;\n    }\n\n    /**\n     * @dev Amount of token already released\n     */\n    function released(address token) public view virtual returns (uint256) {\n        return _erc20Released[token];\n    }\n\n    /**\n     * @dev Getter for the amount of releasable eth.\n     */\n    function releasable() public view virtual returns (uint256) {\n        return vestedAmount(uint64(block.timestamp)) - released();\n    }\n\n    /**\n     * @dev Getter for the amount of releasable `token` tokens. `token` should be the address of an\n     * IERC20 contract.\n     */\n    function releasable(address token) public view virtual returns (uint256) {\n        return vestedAmount(token, uint64(block.timestamp)) - released(token);\n    }\n\n    /**\n     * @dev Release the native token (ether) that have already vested.\n     *\n     * Emits a {EtherReleased} event.\n     */\n    function release() public virtual {\n        uint256 amount = releasable();\n        _released += amount;\n        emit EtherReleased(amount);\n        Address.sendValue(payable(owner()), amount);\n    }\n\n    /**\n     * @dev Release the tokens that have already vested.\n     *\n     * Emits a {ERC20Released} event.\n     */\n    function release(address token) public virtual {\n        uint256 amount = releasable(token);\n        _erc20Released[token] += amount;\n        emit ERC20Released(token, amount);\n        SafeERC20.safeTransfer(IERC20(token), owner(), amount);\n    }\n\n    /**\n     * @dev Calculates the amount of ether that has already vested. Default implementation is a linear vesting curve.\n     */\n    function vestedAmount(uint64 timestamp) public view virtual returns (uint256) {\n        return _vestingSchedule(address(this).balance + released(), timestamp);\n    }\n\n    /**\n     * @dev Calculates the amount of tokens that has already vested. Default implementation is a linear vesting curve.\n     */\n    function vestedAmount(address token, uint64 timestamp) public view virtual returns (uint256) {\n        return _vestingSchedule(IERC20(token).balanceOf(address(this)) + released(token), timestamp);\n    }\n\n    /**\n     * @dev Virtual implementation of the vesting formula. This returns the amount vested, as a function of time, for\n     * an asset given its total historical allocation.\n     */\n    function _vestingSchedule(uint256 totalAllocation, uint64 timestamp) internal view virtual returns (uint256) {\n        if (timestamp < start()) {\n            return 0;\n        } else if (timestamp >= end()) {\n            return totalAllocation;\n        } else {\n            return (totalAllocation * (timestamp - start())) / duration();\n        }\n    }\n}\n",
  "sourcePath": "/home/ubuntu/Documents/GitHub/MiPrimeraDapp/contracts/node_modules/@openzeppelin/contracts/finance/VestingWallet.sol",
  "compiler": {
    "name": "solc",
    "version": "0.8.21+commit.d9974bed.Emscripten.clang"
  },
  "schemaVersion": "3.4.16",
  "updatedAt": "2024-04-14T22:58:14.883Z",
  "devdoc": {
    "details": "A vesting wallet is an ownable contract that can receive native currency and ERC20 tokens, and release these assets to the wallet owner, also referred to as \"beneficiary\", according to a vesting schedule. Any assets transferred to this contract will follow the vesting schedule as if they were locked from the beginning. Consequently, if the vesting has already started, any amount of tokens sent to this contract will (at least partly) be immediately releasable. By setting the duration to 0, one can configure this contract to behave like an asset timelock that hold tokens for a beneficiary until a specified time. NOTE: Since the wallet is {Ownable}, and ownership can be transferred, it is possible to sell unvested tokens. Preventing this in a smart contract is difficult, considering that: 1) a beneficiary address could be a counterfactually deployed contract, 2) there is likely to be a migration path for EOAs to become contracts in the near future. NOTE: When using this contract with any token whose balance is adjusted automatically (i.e. a rebase token), make sure to account the supply/balance adjustment in the vesting schedule to ensure the vested amount is as intended.",
    "errors": {
      "AddressEmptyCode(address)": [
        {
          "details": "There's no code at `target` (it is not a contract)."
        }
      ],
      "AddressInsufficientBalance(address)": [
        {
          "details": "The ETH balance of the account is not enough to perform the operation."
        }
      ],
      "FailedInnerCall()": [
        {
          "details": "A call to an address target failed. The target may have reverted."
        }
      ],
      "OwnableInvalidOwner(address)": [
        {
          "details": "The owner is not a valid owner account. (eg. `address(0)`)"
        }
      ],
      "OwnableUnauthorizedAccount(address)": [
        {
          "details": "The caller account is not authorized to perform an operation."
        }
      ],
      "SafeERC20FailedOperation(address)": [
        {
          "details": "An operation with an ERC20 token failed."
        }
      ]
    },
    "kind": "dev",
    "methods": {
      "constructor": {
        "details": "Sets the sender as the initial owner, the beneficiary as the pending owner, the start timestamp and the vesting duration of the vesting wallet."
      },
      "duration()": {
        "details": "Getter for the vesting duration."
      },
      "end()": {
        "details": "Getter for the end timestamp."
      },
      "owner()": {
        "details": "Returns the address of the current owner."
      },
      "releasable()": {
        "details": "Getter for the amount of releasable eth."
      },
      "releasable(address)": {
        "details": "Getter for the amount of releasable `token` tokens. `token` should be the address of an IERC20 contract."
      },
      "release()": {
        "details": "Release the native token (ether) that have already vested. Emits a {EtherReleased} event."
      },
      "release(address)": {
        "details": "Release the tokens that have already vested. Emits a {ERC20Released} event."
      },
      "released()": {
        "details": "Amount of eth already released"
      },
      "released(address)": {
        "details": "Amount of token already released"
      },
      "renounceOwnership()": {
        "details": "Leaves the contract without owner. It will not be possible to call `onlyOwner` functions. Can only be called by the current owner. NOTE: Renouncing ownership will leave the contract without an owner, thereby disabling any functionality that is only available to the owner."
      },
      "start()": {
        "details": "Getter for the start timestamp."
      },
      "transferOwnership(address)": {
        "details": "Transfers ownership of the contract to a new account (`newOwner`). Can only be called by the current owner."
      },
      "vestedAmount(address,uint64)": {
        "details": "Calculates the amount of tokens that has already vested. Default implementation is a linear vesting curve."
      },
      "vestedAmount(uint64)": {
        "details": "Calculates the amount of ether that has already vested. Default implementation is a linear vesting curve."
      }
    },
    "version": 1
  },
  "userdoc": {
    "kind": "user",
    "methods": {},
    "version": 1
  }
}