{
  "contractName": "Community",
  "abi": [
    {
      "inputs": [
        {
          "internalType": "string",
          "name": "_name",
          "type": "string"
        },
        {
          "internalType": "string",
          "name": "_address",
          "type": "string"
        },
        {
          "internalType": "string",
          "name": "_president",
          "type": "string"
        },
        {
          "internalType": "string",
          "name": "_admin",
          "type": "string"
        },
        {
          "internalType": "uint256",
          "name": "_creationDate",
          "type": "uint256"
        }
      ],
      "stateMutability": "nonpayable",
      "type": "constructor"
    },
    {
      "inputs": [
        {
          "internalType": "address",
          "name": "owner",
          "type": "address"
        }
      ],
      "name": "OwnableInvalidOwner",
      "type": "error"
    },
    {
      "inputs": [
        {
          "internalType": "address",
          "name": "account",
          "type": "address"
        }
      ],
      "name": "OwnableUnauthorizedAccount",
      "type": "error"
    },
    {
      "anonymous": false,
      "inputs": [
        {
          "indexed": true,
          "internalType": "address",
          "name": "previousOwner",
          "type": "address"
        },
        {
          "indexed": true,
          "internalType": "address",
          "name": "newOwner",
          "type": "address"
        }
      ],
      "name": "OwnershipTransferred",
      "type": "event"
    },
    {
      "anonymous": false,
      "inputs": [
        {
          "indexed": false,
          "internalType": "uint256",
          "name": "proposalId",
          "type": "uint256"
        },
        {
          "indexed": false,
          "internalType": "string",
          "name": "description",
          "type": "string"
        }
      ],
      "name": "ProposalCreated",
      "type": "event"
    },
    {
      "anonymous": false,
      "inputs": [
        {
          "indexed": false,
          "internalType": "uint256",
          "name": "proposalId",
          "type": "uint256"
        }
      ],
      "name": "ProposalExecuted",
      "type": "event"
    },
    {
      "anonymous": false,
      "inputs": [
        {
          "indexed": false,
          "internalType": "uint256",
          "name": "proposalId",
          "type": "uint256"
        },
        {
          "indexed": false,
          "internalType": "address",
          "name": "voter",
          "type": "address"
        },
        {
          "indexed": false,
          "internalType": "uint256",
          "name": "votes",
          "type": "uint256"
        }
      ],
      "name": "VoteReceived",
      "type": "event"
    },
    {
      "inputs": [],
      "name": "adminName",
      "outputs": [
        {
          "internalType": "string",
          "name": "",
          "type": "string"
        }
      ],
      "stateMutability": "view",
      "type": "function"
    },
    {
      "inputs": [],
      "name": "communityAddress",
      "outputs": [
        {
          "internalType": "string",
          "name": "",
          "type": "string"
        }
      ],
      "stateMutability": "view",
      "type": "function"
    },
    {
      "inputs": [],
      "name": "communityName",
      "outputs": [
        {
          "internalType": "string",
          "name": "",
          "type": "string"
        }
      ],
      "stateMutability": "view",
      "type": "function"
    },
    {
      "inputs": [],
      "name": "creationDate",
      "outputs": [
        {
          "internalType": "uint256",
          "name": "",
          "type": "uint256"
        }
      ],
      "stateMutability": "view",
      "type": "function"
    },
    {
      "inputs": [
        {
          "internalType": "uint256",
          "name": "",
          "type": "uint256"
        },
        {
          "internalType": "address",
          "name": "",
          "type": "address"
        }
      ],
      "name": "hasVoted",
      "outputs": [
        {
          "internalType": "bool",
          "name": "",
          "type": "bool"
        }
      ],
      "stateMutability": "view",
      "type": "function"
    },
    {
      "inputs": [
        {
          "internalType": "address",
          "name": "",
          "type": "address"
        }
      ],
      "name": "memberTokens",
      "outputs": [
        {
          "internalType": "uint256",
          "name": "",
          "type": "uint256"
        }
      ],
      "stateMutability": "view",
      "type": "function"
    },
    {
      "inputs": [],
      "name": "owner",
      "outputs": [
        {
          "internalType": "address",
          "name": "",
          "type": "address"
        }
      ],
      "stateMutability": "view",
      "type": "function"
    },
    {
      "inputs": [],
      "name": "presidentName",
      "outputs": [
        {
          "internalType": "string",
          "name": "",
          "type": "string"
        }
      ],
      "stateMutability": "view",
      "type": "function"
    },
    {
      "inputs": [
        {
          "internalType": "uint256",
          "name": "",
          "type": "uint256"
        }
      ],
      "name": "proposals",
      "outputs": [
        {
          "internalType": "string",
          "name": "description",
          "type": "string"
        },
        {
          "internalType": "uint256",
          "name": "voteCount",
          "type": "uint256"
        },
        {
          "internalType": "bool",
          "name": "executed",
          "type": "bool"
        }
      ],
      "stateMutability": "view",
      "type": "function"
    },
    {
      "inputs": [],
      "name": "renounceOwnership",
      "outputs": [],
      "stateMutability": "nonpayable",
      "type": "function"
    },
    {
      "inputs": [
        {
          "internalType": "address",
          "name": "newOwner",
          "type": "address"
        }
      ],
      "name": "transferOwnership",
      "outputs": [],
      "stateMutability": "nonpayable",
      "type": "function"
    },
    {
      "inputs": [
        {
          "internalType": "address",
          "name": "member",
          "type": "address"
        },
        {
          "internalType": "uint256",
          "name": "tokens",
          "type": "uint256"
        }
      ],
      "name": "registerMember",
      "outputs": [],
      "stateMutability": "nonpayable",
      "type": "function"
    },
    {
      "inputs": [
        {
          "internalType": "string",
          "name": "description",
          "type": "string"
        }
      ],
      "name": "createProposal",
      "outputs": [],
      "stateMutability": "nonpayable",
      "type": "function"
    },
    {
      "inputs": [
        {
          "internalType": "uint256",
          "name": "proposalId",
          "type": "uint256"
        },
        {
          "internalType": "uint256",
          "name": "votes",
          "type": "uint256"
        }
      ],
      "name": "voteOnProposal",
      "outputs": [],
      "stateMutability": "nonpayable",
      "type": "function"
    },
    {
      "inputs": [
        {
          "internalType": "uint256",
          "name": "proposalId",
          "type": "uint256"
        }
      ],
      "name": "executeProposal",
      "outputs": [],
      "stateMutability": "nonpayable",
      "type": "function"
    }
  ],
  "bytecode": "0x608060405234801561000f575f80fd5b50604051611daa380380611daa83398181016040528101906100319190610344565b335f73ffffffffffffffffffffffffffffffffffffffff168173ffffffffffffffffffffffffffffffffffffffff16036100a2575f6040517f1e4fbdf7000000000000000000000000000000000000000000000000000000008152600401610099919061046a565b60405180910390fd5b6100b18161010360201b60201c565b5084600190816100c19190610687565b5083600290816100d19190610687565b5082600390816100e19190610687565b5081600490816100f19190610687565b50806005819055505050505050610756565b5f805f9054906101000a900473ffffffffffffffffffffffffffffffffffffffff169050815f806101000a81548173ffffffffffffffffffffffffffffffffffffffff021916908373ffffffffffffffffffffffffffffffffffffffff1602179055508173ffffffffffffffffffffffffffffffffffffffff168173ffffffffffffffffffffffffffffffffffffffff167f8be0079c531659141344cd1fd0a4f28419497f9722a3daafe3b4186f6b6457e060405160405180910390a35050565b5f604051905090565b5f80fd5b5f80fd5b5f80fd5b5f80fd5b5f601f19601f8301169050919050565b7f4e487b71000000000000000000000000000000000000000000000000000000005f52604160045260245ffd5b610223826101dd565b810181811067ffffffffffffffff82111715610242576102416101ed565b5b80604052505050565b5f6102546101c4565b9050610260828261021a565b919050565b5f67ffffffffffffffff82111561027f5761027e6101ed565b5b610288826101dd565b9050602081019050919050565b8281835e5f83830152505050565b5f6102b56102b084610265565b61024b565b9050828152602081018484840111156102d1576102d06101d9565b5b6102dc848285610295565b509392505050565b5f82601f8301126102f8576102f76101d5565b5b81516103088482602086016102a3565b91505092915050565b5f819050919050565b61032381610311565b811461032d575f80fd5b50565b5f8151905061033e8161031a565b92915050565b5f805f805f60a0868803121561035d5761035c6101cd565b5b5f86015167ffffffffffffffff81111561037a576103796101d1565b5b610386888289016102e4565b955050602086015167ffffffffffffffff8111156103a7576103a66101d1565b5b6103b3888289016102e4565b945050604086015167ffffffffffffffff8111156103d4576103d36101d1565b5b6103e0888289016102e4565b935050606086015167ffffffffffffffff811115610401576104006101d1565b5b61040d888289016102e4565b925050608061041e88828901610330565b9150509295509295909350565b5f73ffffffffffffffffffffffffffffffffffffffff82169050919050565b5f6104548261042b565b9050919050565b6104648161044a565b82525050565b5f60208201905061047d5f83018461045b565b92915050565b5f81519050919050565b7f4e487b71000000000000000000000000000000000000000000000000000000005f52602260045260245ffd5b5f60028204905060018216806104d157607f821691505b6020821081036104e4576104e361048d565b5b50919050565b5f819050815f5260205f209050919050565b5f6020601f8301049050919050565b5f82821b905092915050565b5f600883026105467fffffffffffffffffffffffffffffffffffffffffffffffffffffffffffffffff8261050b565b610550868361050b565b95508019841693508086168417925050509392505050565b5f819050919050565b5f61058b61058661058184610311565b610568565b610311565b9050919050565b5f819050919050565b6105a483610571565b6105b86105b082610592565b848454610517565b825550505050565b5f90565b6105cc6105c0565b6105d781848461059b565b505050565b5b818110156105fa576105ef5f826105c4565b6001810190506105dd565b5050565b601f82111561063f57610610816104ea565b610619846104fc565b81016020851015610628578190505b61063c610634856104fc565b8301826105dc565b50505b505050565b5f82821c905092915050565b5f61065f5f1984600802610644565b1980831691505092915050565b5f6106778383610650565b9150826002028217905092915050565b61069082610483565b67ffffffffffffffff8111156106a9576106a86101ed565b5b6106b382546104ba565b6106be8282856105fe565b5f60209050601f8311600181146106ef575f84156106dd578287015190505b6106e7858261066c565b86555061074e565b601f1984166106fd866104ea565b5f5b82811015610724578489015182556001820191506020850194506020810190506106ff565b86831015610741578489015161073d601f891682610650565b8355505b6001600288020188555050505b505050505050565b611647806107635f395ff3fe608060405234801561000f575f80fd5b50600436106100f3575f3560e01c806386e476dd11610095578063c6d572ae11610064578063c6d572ae1461025f578063d0590fec1461027d578063d2a7ebd11461029b578063f2fde38b146102b7576100f3565b806386e476dd146101d55780638da5cb5b146101f3578063a5c7900e14610211578063a8a23e3914610241576100f3565b806343859632116100d1578063438596321461016357806349c2a1a614610193578063556f6cc0146101af578063715018a6146101cb576100f3565b8063013cf08b146100f757806305b34410146101295780630d61b51914610147575b5f80fd5b610111600480360381019061010c9190610cc1565b6102d3565b60405161012093929190610d85565b60405180910390f35b61013161039a565b60405161013e9190610dc1565b60405180910390f35b610161600480360381019061015c9190610cc1565b6103a0565b005b61017d60048036038101906101789190610e34565b61048d565b60405161018a9190610e72565b60405180910390f35b6101ad60048036038101906101a89190610fb7565b6104b7565b005b6101c960048036038101906101c49190610ffe565b610595565b005b6101d36107dd565b005b6101dd6107f0565b6040516101ea919061103c565b60405180910390f35b6101fb61087c565b604051610208919061106b565b60405180910390f35b61022b60048036038101906102269190611084565b6108a3565b6040516102389190610dc1565b60405180910390f35b6102496108b8565b604051610256919061103c565b60405180910390f35b610267610944565b604051610274919061103c565b60405180910390f35b6102856109d0565b604051610292919061103c565b60405180910390f35b6102b560048036038101906102b091906110af565b610a5c565b005b6102d160048036038101906102cc9190611084565b610aaa565b005b600781815481106102e2575f80fd5b905f5260205f2090600302015f91509050805f0180546103019061111a565b80601f016020809104026020016040519081016040528092919081815260200182805461032d9061111a565b80156103785780601f1061034f57610100808354040283529160200191610378565b820191905f5260205f20905b81548152906001019060200180831161035b57829003601f168201915b505050505090806001015490806002015f9054906101000a900460ff16905083565b60055481565b6103a8610b2e565b600781815481106103bc576103bb61114a565b5b905f5260205f2090600302016002015f9054906101000a900460ff1615610418576040517f08c379a000000000000000000000000000000000000000000000000000000000815260040161040f906111c1565b60405180910390fd5b60016007828154811061042e5761042d61114a565b5b905f5260205f2090600302016002015f6101000a81548160ff0219169083151502179055507f712ae1383f79ac853f8d882153778e0260ef8f03b504e2866e0593e04d2b291f816040516104829190610dc1565b60405180910390a150565b6008602052815f5260405f20602052805f5260405f205f915091509054906101000a900460ff1681565b6104bf610b2e565b600760405180606001604052808381526020015f81526020015f1515815250908060018154018082558091505060019003905f5260205f2090600302015f909190919091505f820151815f019081610517919061137c565b50602082015181600101556040820151816002015f6101000a81548160ff02191690831515021790555050505f60016007805490506105569190611478565b90507f9c770c289ab5bf7e57cb1d23c8ceae993aea46eb64847072fd3d78ca60d3e43281836040516105899291906114ab565b60405180910390a15050565b8060065f3373ffffffffffffffffffffffffffffffffffffffff1673ffffffffffffffffffffffffffffffffffffffff1681526020019081526020015f20541015610615576040517f08c379a000000000000000000000000000000000000000000000000000000000815260040161060c90611523565b60405180910390fd5b60085f8381526020019081526020015f205f3373ffffffffffffffffffffffffffffffffffffffff1673ffffffffffffffffffffffffffffffffffffffff1681526020019081526020015f205f9054906101000a900460ff16156106ae576040517f08c379a00000000000000000000000000000000000000000000000000000000081526004016106a59061158b565b60405180910390fd5b80600783815481106106c3576106c261114a565b5b905f5260205f2090600302016001015f8282546106e091906115a9565b92505081905550600160085f8481526020019081526020015f205f3373ffffffffffffffffffffffffffffffffffffffff1673ffffffffffffffffffffffffffffffffffffffff1681526020019081526020015f205f6101000a81548160ff0219169083151502179055508060065f3373ffffffffffffffffffffffffffffffffffffffff1673ffffffffffffffffffffffffffffffffffffffff1681526020019081526020015f205f8282546107979190611478565b925050819055507f2dc7503cab0c8e53a50e982257f234b59eb2aff2d39dea8763e479a48f3bb22e8233836040516107d1939291906115dc565b60405180910390a15050565b6107e5610b2e565b6107ee5f610bb5565b565b600280546107fd9061111a565b80601f01602080910402602001604051908101604052809291908181526020018280546108299061111a565b80156108745780601f1061084b57610100808354040283529160200191610874565b820191905f5260205f20905b81548152906001019060200180831161085757829003601f168201915b505050505081565b5f805f9054906101000a900473ffffffffffffffffffffffffffffffffffffffff16905090565b6006602052805f5260405f205f915090505481565b600480546108c59061111a565b80601f01602080910402602001604051908101604052809291908181526020018280546108f19061111a565b801561093c5780601f106109135761010080835404028352916020019161093c565b820191905f5260205f20905b81548152906001019060200180831161091f57829003601f168201915b505050505081565b600180546109519061111a565b80601f016020809104026020016040519081016040528092919081815260200182805461097d9061111a565b80156109c85780601f1061099f576101008083540402835291602001916109c8565b820191905f5260205f20905b8154815290600101906020018083116109ab57829003601f168201915b505050505081565b600380546109dd9061111a565b80601f0160208091040260200160405190810160405280929190818152602001828054610a099061111a565b8015610a545780601f10610a2b57610100808354040283529160200191610a54565b820191905f5260205f20905b815481529060010190602001808311610a3757829003601f168201915b505050505081565b610a64610b2e565b8060065f8473ffffffffffffffffffffffffffffffffffffffff1673ffffffffffffffffffffffffffffffffffffffff1681526020019081526020015f20819055505050565b610ab2610b2e565b5f73ffffffffffffffffffffffffffffffffffffffff168173ffffffffffffffffffffffffffffffffffffffff1603610b22575f6040517f1e4fbdf7000000000000000000000000000000000000000000000000000000008152600401610b19919061106b565b60405180910390fd5b610b2b81610bb5565b50565b610b36610c76565b73ffffffffffffffffffffffffffffffffffffffff16610b5461087c565b73ffffffffffffffffffffffffffffffffffffffff1614610bb357610b77610c76565b6040517f118cdaa7000000000000000000000000000000000000000000000000000000008152600401610baa919061106b565b60405180910390fd5b565b5f805f9054906101000a900473ffffffffffffffffffffffffffffffffffffffff169050815f806101000a81548173ffffffffffffffffffffffffffffffffffffffff021916908373ffffffffffffffffffffffffffffffffffffffff1602179055508173ffffffffffffffffffffffffffffffffffffffff168173ffffffffffffffffffffffffffffffffffffffff167f8be0079c531659141344cd1fd0a4f28419497f9722a3daafe3b4186f6b6457e060405160405180910390a35050565b5f33905090565b5f604051905090565b5f80fd5b5f80fd5b5f819050919050565b610ca081610c8e565b8114610caa575f80fd5b50565b5f81359050610cbb81610c97565b92915050565b5f60208284031215610cd657610cd5610c86565b5b5f610ce384828501610cad565b91505092915050565b5f81519050919050565b5f82825260208201905092915050565b8281835e5f83830152505050565b5f601f19601f8301169050919050565b5f610d2e82610cec565b610d388185610cf6565b9350610d48818560208601610d06565b610d5181610d14565b840191505092915050565b610d6581610c8e565b82525050565b5f8115159050919050565b610d7f81610d6b565b82525050565b5f6060820190508181035f830152610d9d8186610d24565b9050610dac6020830185610d5c565b610db96040830184610d76565b949350505050565b5f602082019050610dd45f830184610d5c565b92915050565b5f73ffffffffffffffffffffffffffffffffffffffff82169050919050565b5f610e0382610dda565b9050919050565b610e1381610df9565b8114610e1d575f80fd5b50565b5f81359050610e2e81610e0a565b92915050565b5f8060408385031215610e4a57610e49610c86565b5b5f610e5785828601610cad565b9250506020610e6885828601610e20565b9150509250929050565b5f602082019050610e855f830184610d76565b92915050565b5f80fd5b5f80fd5b7f4e487b71000000000000000000000000000000000000000000000000000000005f52604160045260245ffd5b610ec982610d14565b810181811067ffffffffffffffff82111715610ee857610ee7610e93565b5b80604052505050565b5f610efa610c7d565b9050610f068282610ec0565b919050565b5f67ffffffffffffffff821115610f2557610f24610e93565b5b610f2e82610d14565b9050602081019050919050565b828183375f83830152505050565b5f610f5b610f5684610f0b565b610ef1565b905082815260208101848484011115610f7757610f76610e8f565b5b610f82848285610f3b565b509392505050565b5f82601f830112610f9e57610f9d610e8b565b5b8135610fae848260208601610f49565b91505092915050565b5f60208284031215610fcc57610fcb610c86565b5b5f82013567ffffffffffffffff811115610fe957610fe8610c8a565b5b610ff584828501610f8a565b91505092915050565b5f806040838503121561101457611013610c86565b5b5f61102185828601610cad565b925050602061103285828601610cad565b9150509250929050565b5f6020820190508181035f8301526110548184610d24565b905092915050565b61106581610df9565b82525050565b5f60208201905061107e5f83018461105c565b92915050565b5f6020828403121561109957611098610c86565b5b5f6110a684828501610e20565b91505092915050565b5f80604083850312156110c5576110c4610c86565b5b5f6110d285828601610e20565b92505060206110e385828601610cad565b9150509250929050565b7f4e487b71000000000000000000000000000000000000000000000000000000005f52602260045260245ffd5b5f600282049050600182168061113157607f821691505b602082108103611144576111436110ed565b5b50919050565b7f4e487b71000000000000000000000000000000000000000000000000000000005f52603260045260245ffd5b7f50726f706f73616c20616c7265616479206578656375746564000000000000005f82015250565b5f6111ab601983610cf6565b91506111b682611177565b602082019050919050565b5f6020820190508181035f8301526111d88161119f565b9050919050565b5f819050815f5260205f209050919050565b5f6020601f8301049050919050565b5f82821b905092915050565b5f6008830261123b7fffffffffffffffffffffffffffffffffffffffffffffffffffffffffffffffff82611200565b6112458683611200565b95508019841693508086168417925050509392505050565b5f819050919050565b5f61128061127b61127684610c8e565b61125d565b610c8e565b9050919050565b5f819050919050565b61129983611266565b6112ad6112a582611287565b84845461120c565b825550505050565b5f90565b6112c16112b5565b6112cc818484611290565b505050565b5b818110156112ef576112e45f826112b9565b6001810190506112d2565b5050565b601f82111561133457611305816111df565b61130e846111f1565b8101602085101561131d578190505b611331611329856111f1565b8301826112d1565b50505b505050565b5f82821c905092915050565b5f6113545f1984600802611339565b1980831691505092915050565b5f61136c8383611345565b9150826002028217905092915050565b61138582610cec565b67ffffffffffffffff81111561139e5761139d610e93565b5b6113a8825461111a565b6113b38282856112f3565b5f60209050601f8311600181146113e4575f84156113d2578287015190505b6113dc8582611361565b865550611443565b601f1984166113f2866111df565b5f5b82811015611419578489015182556001820191506020850194506020810190506113f4565b868310156114365784890151611432601f891682611345565b8355505b6001600288020188555050505b505050505050565b7f4e487b71000000000000000000000000000000000000000000000000000000005f52601160045260245ffd5b5f61148282610c8e565b915061148d83610c8e565b92508282039050818111156114a5576114a461144b565b5b92915050565b5f6040820190506114be5f830185610d5c565b81810360208301526114d08184610d24565b90509392505050565b7f4e6f7420656e6f75676820746f6b656e7320746f20766f7465000000000000005f82015250565b5f61150d601983610cf6565b9150611518826114d9565b602082019050919050565b5f6020820190508181035f83015261153a81611501565b9050919050565b7f416c726561647920766f746564000000000000000000000000000000000000005f82015250565b5f611575600d83610cf6565b915061158082611541565b602082019050919050565b5f6020820190508181035f8301526115a281611569565b9050919050565b5f6115b382610c8e565b91506115be83610c8e565b92508282019050808211156115d6576115d561144b565b5b92915050565b5f6060820190506115ef5f830186610d5c565b6115fc602083018561105c565b6116096040830184610d5c565b94935050505056fea2646970667358221220d7ee630fc1ed4bddf5c171386ee330b8e7a95f72b25ad53f8fec21193dac239164736f6c63430008190033",
  "immutableReferences": {},
  "source": "// SPDX-License-Identifier: MIT\r\npragma solidity ^0.8.0;\r\n\r\nimport \"@openzeppelin/contracts/access/Ownable.sol\";\r\nimport \"@openzeppelin/contracts/token/ERC20/ERC20.sol\";\r\n\r\ncontract Community is Ownable(msg.sender) {\r\n    string public communityName;\r\n    string public communityAddress;\r\n    string public presidentName;\r\n    string public adminName;\r\n    uint256 public creationDate;\r\n\r\n    mapping(address => uint256) public memberTokens;  // Tokens de votacin asignados a cada miembro\r\n    Proposal[] public proposals; // Lista de propuestas\r\n    mapping(uint256 => mapping(address => bool)) public hasVoted; // Mapping to track if a member has voted on a proposal\r\n\r\n    struct Proposal {\r\n        string description;\r\n        uint256 voteCount;\r\n        bool executed;\r\n    }\r\n\r\n    event ProposalCreated(uint256 proposalId, string description);\r\n    event VoteReceived(uint256 proposalId, address voter, uint256 votes);\r\n    event ProposalExecuted(uint256 proposalId);\r\n\r\n    constructor(\r\n        string memory _name,\r\n        string memory _address,\r\n        string memory _president,\r\n        string memory _admin,\r\n        uint256 _creationDate\r\n    ) {\r\n        communityName = _name;\r\n        communityAddress = _address;\r\n        presidentName = _president;\r\n        adminName = _admin;\r\n        creationDate = _creationDate;\r\n    }\r\n\r\n    function registerMember(address member, uint256 tokens) public onlyOwner {\r\n        memberTokens[member] = tokens;\r\n    }\r\n\r\n    function createProposal(string memory description) public onlyOwner {\r\n        proposals.push(Proposal({\r\n            description: description,\r\n            voteCount: 0,\r\n            executed: false\r\n        }));\r\n\r\n        uint256 newProposalId = proposals.length - 1;\r\n        emit ProposalCreated(newProposalId, description);\r\n    }\r\n\r\n    function voteOnProposal(uint256 proposalId, uint256 votes) public {\r\n        require(memberTokens[msg.sender] >= votes, \"Not enough tokens to vote\");\r\n        require(!hasVoted[proposalId][msg.sender], \"Already voted\");\r\n\r\n        proposals[proposalId].voteCount += votes;\r\n        hasVoted[proposalId][msg.sender] = true;\r\n        memberTokens[msg.sender] -= votes;\r\n\r\n        emit VoteReceived(proposalId, msg.sender, votes);\r\n    }\r\n\r\n    function executeProposal(uint256 proposalId) public onlyOwner {\r\n        require(!proposals[proposalId].executed, \"Proposal already executed\");\r\n        proposals[proposalId].executed = true;\r\n        // Logic to execute the proposal goes here\r\n\r\n        emit ProposalExecuted(proposalId);\r\n    }\r\n}\r\n",
  "sourcePath": "/home/ubuntu/Documents/GitHub/MiPrimeraDapp/contracts/Community.sol",
  "compiler": {
    "name": "solc",
    "version": "0.8.25+commit.b61c2a91.Emscripten.clang"
  },
  "schemaVersion": "3.4.16",
  "updatedAt": "2024-04-15T19:54:06.901Z",
  "devdoc": {
    "errors": {
      "OwnableInvalidOwner(address)": [
        {
          "details": "The owner is not a valid owner account. (eg. `address(0)`)"
        }
      ],
      "OwnableUnauthorizedAccount(address)": [
        {
          "details": "The caller account is not authorized to perform an operation."
        }
      ]
    },
    "kind": "dev",
    "methods": {
      "owner()": {
        "details": "Returns the address of the current owner."
      },
      "renounceOwnership()": {
        "details": "Leaves the contract without owner. It will not be possible to call `onlyOwner` functions. Can only be called by the current owner. NOTE: Renouncing ownership will leave the contract without an owner, thereby disabling any functionality that is only available to the owner."
      },
      "transferOwnership(address)": {
        "details": "Transfers ownership of the contract to a new account (`newOwner`). Can only be called by the current owner."
      }
    },
    "version": 1
  },
  "userdoc": {
    "kind": "user",
    "methods": {},
    "version": 1
  }
}