{
  "contractName": "CondominiumDAO",
  "abi": [
    {
      "inputs": [
        {
          "internalType": "address",
          "name": "",
          "type": "address"
        }
      ],
      "name": "members",
      "outputs": [
        {
          "internalType": "bool",
          "name": "",
          "type": "bool"
        }
      ],
      "stateMutability": "view",
      "type": "function"
    },
    {
      "inputs": [],
      "name": "proposalCount",
      "outputs": [
        {
          "internalType": "uint256",
          "name": "",
          "type": "uint256"
        }
      ],
      "stateMutability": "view",
      "type": "function"
    },
    {
      "inputs": [
        {
          "internalType": "uint256",
          "name": "",
          "type": "uint256"
        }
      ],
      "name": "proposals",
      "outputs": [
        {
          "internalType": "address",
          "name": "proposer",
          "type": "address"
        },
        {
          "internalType": "string",
          "name": "description",
          "type": "string"
        },
        {
          "internalType": "uint256",
          "name": "voteCount",
          "type": "uint256"
        },
        {
          "internalType": "bool",
          "name": "executed",
          "type": "bool"
        }
      ],
      "stateMutability": "view",
      "type": "function"
    },
    {
      "inputs": [],
      "name": "totalMembers",
      "outputs": [
        {
          "internalType": "uint256",
          "name": "",
          "type": "uint256"
        }
      ],
      "stateMutability": "view",
      "type": "function"
    },
    {
      "inputs": [
        {
          "internalType": "address",
          "name": "_member",
          "type": "address"
        }
      ],
      "name": "registerMember",
      "outputs": [],
      "stateMutability": "nonpayable",
      "type": "function"
    },
    {
      "inputs": [
        {
          "internalType": "string",
          "name": "_description",
          "type": "string"
        }
      ],
      "name": "submitProposal",
      "outputs": [],
      "stateMutability": "nonpayable",
      "type": "function"
    },
    {
      "inputs": [
        {
          "internalType": "uint256",
          "name": "_proposalId",
          "type": "uint256"
        }
      ],
      "name": "vote",
      "outputs": [],
      "stateMutability": "nonpayable",
      "type": "function"
    },
    {
      "inputs": [
        {
          "internalType": "uint256",
          "name": "_proposalId",
          "type": "uint256"
        }
      ],
      "name": "executeProposal",
      "outputs": [],
      "stateMutability": "nonpayable",
      "type": "function"
    }
  ],
  "bytecode": "0x6080604052348015600e575f80fd5b506110948061001c5f395ff3fe608060405234801561000f575f80fd5b5060043610610086575f3560e01c8063373d6d5e11610059578063373d6d5e1461012557806376e9255914610141578063da35c6641461015f578063fcb4888e1461017d57610086565b80630121b93f1461008a578063013cf08b146100a657806308ae4b0c146100d95780630d61b51914610109575b5f80fd5b6100a4600480360381019061009f9190610745565b610199565b005b6100c060048036038101906100bb9190610745565b610386565b6040516100d09493929190610848565b60405180910390f35b6100f360048036038101906100ee91906108bc565b610462565b60405161010091906108e7565b60405180910390f35b610123600480360381019061011e9190610745565b61047f565b005b61013f600480360381019061013a9190610a2c565b610556565b005b610149610686565b6040516101569190610a73565b60405180910390f35b61016761068c565b6040516101749190610a73565b60405180910390f35b610197600480360381019061019291906108bc565b610692565b005b60035f3373ffffffffffffffffffffffffffffffffffffffff1673ffffffffffffffffffffffffffffffffffffffff1681526020019081526020015f205f9054906101000a900460ff16610222576040517f08c379a000000000000000000000000000000000000000000000000000000000815260040161021990610afc565b60405180910390fd5b5f805f8381526020019081526020015f209050806003015f9054906101000a900460ff1615610286576040517f08c379a000000000000000000000000000000000000000000000000000000000815260040161027d90610b8a565b60405180910390fd5b806004015f3373ffffffffffffffffffffffffffffffffffffffff1673ffffffffffffffffffffffffffffffffffffffff1681526020019081526020015f205f9054906101000a900460ff1615610312576040517f08c379a000000000000000000000000000000000000000000000000000000000815260040161030990610c18565b60405180910390fd5b806002015f81548092919061032690610c63565b91905055506001816004015f3373ffffffffffffffffffffffffffffffffffffffff1673ffffffffffffffffffffffffffffffffffffffff1681526020019081526020015f205f6101000a81548160ff0219169083151502179055505050565b5f602052805f5260405f205f91509050805f015f9054906101000a900473ffffffffffffffffffffffffffffffffffffffff16908060010180546103c990610cd7565b80601f01602080910402602001604051908101604052809291908181526020018280546103f590610cd7565b80156104405780601f1061041757610100808354040283529160200191610440565b820191905f5260205f20905b81548152906001019060200180831161042357829003601f168201915b505050505090806002015490806003015f9054906101000a900460ff16905084565b6003602052805f5260405f205f915054906101000a900460ff1681565b5f805f8381526020019081526020015f209050806003015f9054906101000a900460ff16156104e3576040517f08c379a00000000000000000000000000000000000000000000000000000000081526004016104da90610b8a565b60405180910390fd5b600280546104f19190610d34565b816002015411610536576040517f08c379a000000000000000000000000000000000000000000000000000000000815260040161052d90610dd4565b60405180910390fd5b6001816003015f6101000a81548160ff0219169083151502179055505050565b60035f3373ffffffffffffffffffffffffffffffffffffffff1673ffffffffffffffffffffffffffffffffffffffff1681526020019081526020015f205f9054906101000a900460ff166105df576040517f08c379a00000000000000000000000000000000000000000000000000000000081526004016105d690610afc565b60405180910390fd5b60015f8154809291906105f190610c63565b91905055505f805f60015481526020019081526020015f20905033815f015f6101000a81548173ffffffffffffffffffffffffffffffffffffffff021916908373ffffffffffffffffffffffffffffffffffffffff1602179055508181600101908161065d9190610f8f565b505f81600201819055505f816003015f6101000a81548160ff0219169083151502179055505050565b60025481565b60015481565b600160035f8373ffffffffffffffffffffffffffffffffffffffff1673ffffffffffffffffffffffffffffffffffffffff1681526020019081526020015f205f6101000a81548160ff02191690831515021790555060025f8154809291906106f990610c63565b919050555050565b5f604051905090565b5f80fd5b5f80fd5b5f819050919050565b61072481610712565b811461072e575f80fd5b50565b5f8135905061073f8161071b565b92915050565b5f6020828403121561075a5761075961070a565b5b5f61076784828501610731565b91505092915050565b5f73ffffffffffffffffffffffffffffffffffffffff82169050919050565b5f61079982610770565b9050919050565b6107a98161078f565b82525050565b5f81519050919050565b5f82825260208201905092915050565b8281835e5f83830152505050565b5f601f19601f8301169050919050565b5f6107f1826107af565b6107fb81856107b9565b935061080b8185602086016107c9565b610814816107d7565b840191505092915050565b61082881610712565b82525050565b5f8115159050919050565b6108428161082e565b82525050565b5f60808201905061085b5f8301876107a0565b818103602083015261086d81866107e7565b905061087c604083018561081f565b6108896060830184610839565b95945050505050565b61089b8161078f565b81146108a5575f80fd5b50565b5f813590506108b681610892565b92915050565b5f602082840312156108d1576108d061070a565b5b5f6108de848285016108a8565b91505092915050565b5f6020820190506108fa5f830184610839565b92915050565b5f80fd5b5f80fd5b7f4e487b71000000000000000000000000000000000000000000000000000000005f52604160045260245ffd5b61093e826107d7565b810181811067ffffffffffffffff8211171561095d5761095c610908565b5b80604052505050565b5f61096f610701565b905061097b8282610935565b919050565b5f67ffffffffffffffff82111561099a57610999610908565b5b6109a3826107d7565b9050602081019050919050565b828183375f83830152505050565b5f6109d06109cb84610980565b610966565b9050828152602081018484840111156109ec576109eb610904565b5b6109f78482856109b0565b509392505050565b5f82601f830112610a1357610a12610900565b5b8135610a238482602086016109be565b91505092915050565b5f60208284031215610a4157610a4061070a565b5b5f82013567ffffffffffffffff811115610a5e57610a5d61070e565b5b610a6a848285016109ff565b91505092915050565b5f602082019050610a865f83018461081f565b92915050565b7f4f6e6c79206d656d626572732063616e20706572666f726d20746869732061635f8201527f74696f6e00000000000000000000000000000000000000000000000000000000602082015250565b5f610ae66024836107b9565b9150610af182610a8c565b604082019050919050565b5f6020820190508181035f830152610b1381610ada565b9050919050565b7f50726f706f73616c2068617320616c7265616479206265656e206578656375745f8201527f6564000000000000000000000000000000000000000000000000000000000000602082015250565b5f610b746022836107b9565b9150610b7f82610b1a565b604082019050919050565b5f6020820190508181035f830152610ba181610b68565b9050919050565b7f4d656d6265722068617320616c726561647920766f74656420666f72207468695f8201527f732070726f706f73616c00000000000000000000000000000000000000000000602082015250565b5f610c02602a836107b9565b9150610c0d82610ba8565b604082019050919050565b5f6020820190508181035f830152610c2f81610bf6565b9050919050565b7f4e487b71000000000000000000000000000000000000000000000000000000005f52601160045260245ffd5b5f610c6d82610712565b91507fffffffffffffffffffffffffffffffffffffffffffffffffffffffffffffffff8203610c9f57610c9e610c36565b5b600182019050919050565b7f4e487b71000000000000000000000000000000000000000000000000000000005f52602260045260245ffd5b5f6002820490506001821680610cee57607f821691505b602082108103610d0157610d00610caa565b5b50919050565b7f4e487b71000000000000000000000000000000000000000000000000000000005f52601260045260245ffd5b5f610d3e82610712565b9150610d4983610712565b925082610d5957610d58610d07565b5b828204905092915050565b7f496e73756666696369656e7420766f74657320746f20657865637574652074685f8201527f652070726f706f73616c00000000000000000000000000000000000000000000602082015250565b5f610dbe602a836107b9565b9150610dc982610d64565b604082019050919050565b5f6020820190508181035f830152610deb81610db2565b9050919050565b5f819050815f5260205f209050919050565b5f6020601f8301049050919050565b5f82821b905092915050565b5f60088302610e4e7fffffffffffffffffffffffffffffffffffffffffffffffffffffffffffffffff82610e13565b610e588683610e13565b95508019841693508086168417925050509392505050565b5f819050919050565b5f610e93610e8e610e8984610712565b610e70565b610712565b9050919050565b5f819050919050565b610eac83610e79565b610ec0610eb882610e9a565b848454610e1f565b825550505050565b5f90565b610ed4610ec8565b610edf818484610ea3565b505050565b5b81811015610f0257610ef75f82610ecc565b600181019050610ee5565b5050565b601f821115610f4757610f1881610df2565b610f2184610e04565b81016020851015610f30578190505b610f44610f3c85610e04565b830182610ee4565b50505b505050565b5f82821c905092915050565b5f610f675f1984600802610f4c565b1980831691505092915050565b5f610f7f8383610f58565b9150826002028217905092915050565b610f98826107af565b67ffffffffffffffff811115610fb157610fb0610908565b5b610fbb8254610cd7565b610fc6828285610f06565b5f60209050601f831160018114610ff7575f8415610fe5578287015190505b610fef8582610f74565b865550611056565b601f19841661100586610df2565b5f5b8281101561102c57848901518255600182019150602085019450602081019050611007565b868310156110495784890151611045601f891682610f58565b8355505b6001600288020188555050505b50505050505056fea2646970667358221220a659fec211d5aa1b2a51ee1253cdc3798232f819803ea50bef0e7564715b353364736f6c63430008190033",
  "immutableReferences": {},
  "source": "// SPDX-License-Identifier: MIT\npragma solidity ^0.8.0;\n\ncontract CondominiumDAO {\n    // Structure to represent a proposal\n    struct Proposal {\n        address proposer;\n        string description;\n        uint256 voteCount;\n        bool executed;\n        mapping(address => bool) votes;\n    }\n\n    mapping(uint256 => Proposal) public proposals;\n    uint256 public proposalCount;\n    \n    uint256 public totalMembers; // Total number of members\n\n    mapping(address => bool) public members;\n\n    modifier onlyMember() {\n        require(members[msg.sender], \"Only members can perform this action\");\n        _;\n    }\n\n    function registerMember(address _member) external {\n        members[_member] = true;\n        totalMembers++;\n    }\n\n    function submitProposal(string memory _description) external onlyMember {\n        proposalCount++;\n        Proposal storage newProposal = proposals[proposalCount];\n        newProposal.proposer = msg.sender;\n        newProposal.description = _description;\n        newProposal.voteCount = 0;\n        newProposal.executed = false;\n    }\n\n    function vote(uint256 _proposalId) external onlyMember {\n        Proposal storage proposal = proposals[_proposalId];\n        require(!proposal.executed, \"Proposal has already been executed\");\n        require(!proposal.votes[msg.sender], \"Member has already voted for this proposal\");\n\n        proposal.voteCount++;\n        proposal.votes[msg.sender] = true;\n    }\n\n    function executeProposal(uint256 _proposalId) external {\n        Proposal storage proposal = proposals[_proposalId];\n        require(!proposal.executed, \"Proposal has already been executed\");\n        require(proposal.voteCount > (totalMembers / 2), \"Insufficient votes to execute the proposal\");\n\n        // Execute the proposal here\n        proposal.executed = true;\n    }\n}",
  "sourcePath": "/home/ubuntu/Documents/GitHub/MiPrimeraDapp/contracts/CommunityDAO.sol",
  "compiler": {
    "name": "solc",
    "version": "0.8.25+commit.b61c2a91.Emscripten.clang"
  },
  "schemaVersion": "3.4.16",
  "updatedAt": "2024-04-15T19:38:38.255Z",
  "devdoc": {
    "kind": "dev",
    "methods": {},
    "version": 1
  },
  "userdoc": {
    "kind": "user",
    "methods": {},
    "version": 1
  }
}